:03000000020E32BB
:0C0E3200787FE4F6D8FD75817A020E7915
:100BEC0041542B4E4D47533D352C30302530387801
:100BFC000D0A0025730D0A0041542B4E4344503D01
:100C0C003133392E3135392E3134302E33342C35B5
:100C1C003638330D0A0041542B4E52420D0A004116
:100C2C00542B4E4E4D493D310D0A0041542B434738
:100C3C004154543D310D0A0078787878787878787A
:100C4C007878787878787878002020787878787840
:100C5C0078787878787878202000202078787878E0
:100C6C007878787878787878202000202020207880
:100C7C007878787878202020202020002A2A2A2AA8
:100C8C002A4E422D494F542A2A2A2A2A00B9E2D543
:100C9C00D5A3BA2020202020204C75782000CEC26D
:100CAC00B6C8A3BA202020202020A1E6202000CA0C
:100CBC00AAB6C8A3BA20202020202025202020005E
:1010A900022500000231000002560000025C000027
:1010B900015A000122000152001E34000000000004
:1010C9000000000000000000000000000000000017
:0910D9000000000000000000000E
:100CCC001213D5121252120F947F0A7E001212F5D3
:100CDC001210E77F017E0012127012111B12000E0F
:100CEC0012128EC200D2017FDC121232C200D2016B
:100CFC007FDC12117C120AF38E258F267E007F1E5C
:100D0C007D007B007A007934120658120EBE8514D1
:100D1C0023851524850E58850F59AD59AC58AF2431
:100D2C00AE23120D90E522B40117E4F522AF26AEE6
:100D3C002512135F7B007A0079347D051211CC806B
:100D4C00B4E55AB401AFE4F55A7562FF75630B75DF
:100D5C0064EC852565852666FB7A0079341206E0FD
:100D6C007562007563007564347BFF7A0B79FF1232
:100D7C0006E67B007A0079347D1E1211EFD28CD2FC
:040D8C00AF020D01A4
:10135F00AC067534887535668C368F377538AA228A
:10128E00758DFD758BFDD28EC29FD29ED29CC2995A
:07129E00C298D2AFD2AC22CE
:1010E7007BFF7A0C7944E4FD7F011212A57BFF7A1E
:1010F7000C7955E4FD7F021212A57BFF7A0C796605
:10110700E4FD7F031212A57BFF7A0C7977E4FD7F5C
:04111700040212A517
:10111B007BFF7A0C7988E4FD7F011212A57BFF7AA5
:10112B000C7999E4FD7F021212A57BFF7A0C79AA48
:10113B00E4FD7F031212A57BFF7A0C79BBE4FD7FE4
:04114B00040212A5E3
:100F94007F647E001212F57BFF7A0C79041212E250
:100FA4007F647E001212F57BFF7A0C79221212E222
:100FB4007F647E001212F57BFF7A0C792B1212E209
:100FC4007F647E001212F57BFF7A0C79371212E2ED
:070FD4007F647E000212F5AC
:10000E00758E80438901758ACD758CD4C28DD28C44
:05001E00D2A9D2AF22BF
:03000B00020FDB06
:100FDB00C0E0C0D0758ACD758CD40532E532700275
:100FEB000531D394E8E531940340270557E5577055
:100FFB00020556753100753200752201D3943CE51C
:10100B00569400400D755600755700755A01C2AFC6
:07101B00C28CD0D0D0E032FE
:0300430002106741
:10106700C0E0C0D075D000C00075AF00E59A30E091
:1010770027539AFE755E01055DE55D7002055C14F8
:101087002427F8A69BD3E55D940AE55C64809480E9
:101097004006755C00755D0075AF01D000D0D0D0FB
:0210A700E03235
:07136F008C80121376D2A757
:081376007F017ECCDEFEDFFAF0
:01137E00224C
:100026007580FF7D64C2A5D2A6D2A7121376E5809D
:0C0036005480FFC2A7AE051DEE5F70F9FC
:01004200229B
:10133D00AC07120026D2A5C2A6C2A712136FC2A770
:01134D00227D
:1012BB00AC07120026C2A5C2A6C2A7121376121340
:0412CB006FC2A72225
:10121200BF01047F808013BF02047F90800CBF0354
:10122200047F888005BF04027F98EF2DFF0212BB66
:101252007F341212BB7F341212BB7F301212BB7F5B
:0E1262000C1212BB7F011212BB7F060212BBE0
:1012A500121212120545FF600C12133D740129F943
:0612B500E43AFA80EE228B
:1012F500EFD39400400B7E817D2DDDFEDEFA1F804D
:01130500EFF8
:0113060022C4
:10130700EFD39400400B7E037D08DDFEDEFA1F80DD
:01131700EFE6
:0113180022B2
:10127000EF1FAA0670011E4A60137D8EEDD3940005
:0D12800040EE7CA87BFADBFEDCFA1D80EF5F
:01128D00223E
:0B139C000000007F017E85DEFEDFFC0C
:0113A7002223
:070003000000007F18DFFE82
:01000A0022D3
:0C138F007F027E0D7DEDDDFEDEFCDFFA4E
:01139B00222F
:0410E200021A0000EE
:0513D5007F0102131965
:101319008F671212CF7F461211A5AF671211A5026E
:02132900137F30
:061022008B678A688969F2
:101028001212CF7F471211A5E4F56A12114FAB6770
:10103800AA68A969856A82758300EF12059DE56A29
:10104800B40304D2008002C20012132B056AE56AB9
:0F105800C3940340D612137F7F057E000212F56A
:1012CF00D2A1D2A27F01121307C2A17F011213076D
:0312DF00C2A22286
:10137F00C2A1D2A27F01121307D2A17F01021307CC
:10132B00A20092A1D2A27F01121307C2A27F0102D7
:02133B00130796
:10134E00D2A27F01121307A2A1C2A27F011213071C
:01135E00226C
:0211A5008F6B4E
:1011A700E4F56CE56B25E0F56B92A1D2A27F011205
:1011B7001307C2A27F01121307056CE56CC39408DD
:0511C70040E102134E9F
:10114F00E4F56CD2A1F56BE56C25E0F56CD2A27FCE
:10115F0001121307A2A1E433426CC2A27F01121342
:0C116F0007056BE56BC3940840DDAF6C16
:01117B002251
:100AF3007F011213197F101213197FB47E00121293
:100B0300F57B007A00795F121022751A00855F1B4E
:100B1300E51BFE7C00E42560F51BEC3EF51AFCADFD
:100B23001BE41200EB7B9A7A997999783F1200497A
:100B33001201248E1A8F1B7F931212BBAE1AAF1BA6
:100B43007C277D101205BFEF2430FF12133DAE1A30
:100B5300AF1B7C277D101205BF7E037FE8CFCDCF6F
:100B6300CECCCE1205BFEF2430FF12133DAE1AAF29
:100B73001B7C277D101205BF7E037FE8CFCDCFCE30
:100B8300CCCE1205BF7E007F64CFCDCFCECCCE12AC
:100B930005BFEF2430FF12133DAE1AAF1B7C277D38
:100BA300101205BF7E037FE8CFCDCFCECCCE12058A
:100BB300BF7E007F64CFCDCFCECCCE1205BF7E00EB
:100BC3007F0ACFCDCFCECCCE1205BFEF2430FF129C
:100BD300133DAE1AAF1B7C007D0A1205BFED243016
:080BE300FF12133DAE1AAF1B17
:010BEB0022E7
:101232004398508F9C300105438E158003438E11D5
:10124200300005438780800353877FD2AFD2AC2220
:10117C00439A508F9C300105438E148008E58E44B1
:10118C001054FBF58E300005438E088003538EF708
:09119C0053A2EFD2AF43AF0122D0
:0813BF008F993099FDC29922BB
:0611CC008B5F8A6089615F
:1011D200E4FEEEC39D5015AB5FAA60A9618E8275D5
:0C11E200830012055EFF1213BF0E80E6B2
:0111EE0022DE
:0813C7008F993099FDC29922B3
:0B13B4008F9BE59A30E1FB539AFD226D
:1012E200120545FF600C1213B4740129F9E43AFAAD
:0312F20080EE2269
:0611EF008B5F8A6089613C
:1011F500E4FEEEC39D5015AB5FAA60A9618E8275B2
:0C120500830012055EFF1213B40E80E699
:0112110022BA
:0613CF00AE071213C72255
:030023000213A81D
:0C13A800309808C298751C0185991D3210
:100D90008E5F8F608C618D627F8B1212BBAE5FAFF6
:100DA000607C007D641205BFEF2430FF12133DAE5E
:100DB0005FAF607C007D641205BF7E007F0ACFCDEF
:100DC000CFCECCCE1205BFEF2430FF12133D7F2EC5
:100DD00012133DAE5FAF607C007D0A1205BFED24AB
:100DE00030FF12133D7F9B1212BBAE61AF627C00DD
:100DF0007D641205BFEF2430FF12133DAE61AF6278
:100E00007C007D641205BF7E007F0ACFCDCFCECCA3
:100E1000CE1205BFEF2430FF12133D7F2E12133D7B
:100E2000AE61AF627C007D0A1205BFED2430FF0287
:020E3000133D70
:100F4500E4F55F75080220A007AF080508EF70F605
:100F5500120003120003120003120003120003E43F
:100F6500F50B30A003750B0175080230A007AF081B
:100F75000508EF70F6E50864016013E50D25E0F559
:0E0F85000DE50B420D055FE55FC3940840B516
:010F9300223B
:100EBE00C2A012138FD2A012139CD2A020A07175C3
:100ECE00080220A007AF080508EF70F6750802307B
:100EDE00A007AF080508EF70F6120F45850D161224
:100EEE000F45850D17120F45850D18120F45850DEF
:100EFE0019120F45850D0AD2A0E5182519251625BC
:100F0E0017F50B650A7029851610851711851812AD
:100F1E00851913850A09E510FE7C00E42511F50FED
:100F2E00EC3EF50EE512FEE42513F515EC3EF51438
:070F3E007F017E000212702A
:1000460002019AEC5D046005E85904700302019010
:1000560012015B580460F6EC4860F2EC7004FDFE99
:10006600FF22C860DB2481C85009C398600250068D
:100076000201979850CAF582E9294B4A7005AB826E
:1000860002018675F0007C1A7880C3EF9BEE9AED2C
:1000960099400DC3EF9BFFEE9AFEED99FDE842F005
:1000A600DC23ACF0D0E0FFD0E0FED0E0FDAB822058
:1000B600E7101BEB60BAEC2CFCEF33FFEE33FEEDE2
:1000C60033FD020172E803F830E705C0F075F00071
:1000D600EF2FFFEE33FEED33FD40B830E7C280AAC6
:1000E60075F020800E75F010800575F0087D007E95
:1000F600007F003392D530D503120614EC3340103E
:10010600EF33FFEE33FEED33FDEC33FCD5F0ED229D
:0E011600E5F0247EA2D513CC92E7CDCEFF22D9
:10012400EDD2E7CD33EC3392D524814006E4FFFED3
:10013400FDFC22FCE4CFCECDCC24E0501174FF8032
:10014400EDC3CC13CCCD13CDCE13CECF13CF0470CF
:07015400F030D5DE020614B5
:10068400E5762462F8E6057622785F300702786220
:10069400E475F0011206220205452000EB7F2ED2FC
:1006A400008018EF540F2490D43440D4FF30040B4E
:1006B400EF24BFB41A0050032461FFE577600215EC
:1006C40077057AE57A7002057930070D785FE4756D
:1006D400F001120622EF02058B0213CF7403D20736
:1006E4008003E4C207F5768B5F8A608961E4F5775D
:1006F400F579F57AE57760077F201206BF80F575F6
:1007040078FFC201C200C202C203C205C206C20807
:1007140012068DFF700D3007057F001206D0AF7AE8
:10072400AE7922B4255FC2D5C20412068DFF24D04F
:10073400B40A00501A75F00A787730D50508B6FF68
:100744000106C6A426F620D5047002D20380D9245B
:10075400CFB41A00EF5004C2E5D2040209BDD2019D
:1007640080C6D20080C0D20280BCD2D580BAD20565
:1007740080B47F201206BF2002077401B5770040C1
:10078400F1120684FF1206BF0206F8D208D20680D0
:1007940095120684FB120684FA120684F94A4B70F9
:1007A4000679B47A0A7BFF20022EE577602A7E0060
:1007B4008E8275830012055E60060EEE657870F019
:1007C400C2D5EBC0E0EAC0E0E9C0E0EE120A1DD0F9
:1007D400E0F9D0E0FAD0E0FB120545FF60AAEBC0D7
:1007E400E0EAC0E0E9C0E01206BFD0E02401F9D09D
:1007F400E03400FAD0E0FBE5780460DCD578D980F9
:1008040087D20280A2120A0060F7E5787001041210
:1008140001A5A978600DE578600914F578120AA796
:10082400EF60F3EA30E702F404C3995077EAF42561
:10083400780430E701E404F578800D120A0060C101
:10084400EA057825781201A5EA7875F630E701E41F
:10085400257804D5780420050114120A1DE4C0E0AB
:10086400120AA77875E6601320E70714F61206A7A4
:10087400802204F6D0E014C0E07F001206A7E578D9
:10088400600712069E1578800B30050312069ED071
:10089400E00206F8D0E00480C5120A0060A0E57802
:1008A400041201A57875EAF6E578200502600104D2
:0508B4002404120A1DDE
:1008B90074FF04C0E0120AA71206A7E57820050212
:1008C900600312069ED0E0B578E87F451206B1783C
:1008D90075E67F2B30E7047F2DF404C0E01206BFD4
:1008E900D0E075F00A84C0F01206A8D0E01206A87C
:1008F9000206F8791080027908C206C2088008D277
:10090900D5790A8004790AC2D5E578047002F578A8
:10091900E4FAFDFEFF120684FC7B0820011312068F
:1009290084FD7B1030000A120684FE120684FF7BC8
:1009390020EC3382D592D55013C3E43000069FFFD3
:10094900E49EFEE42001039DFDE49CFCE4CBF8C297
:1009590001EC700CCFCECDCCE824F8F870F38017F9
:10096900C3EF33FFEE33FEED33FDEC33FCEB33FB2A
:10097900994002FB0FD8E9EB300105F8D0E0C448F3
:10098900B201C0E00AEC4D4E4F78207B0070C2EAFC
:10099900B5780040BCC0E0120A1FD0F0D0E02001B9
:1009A90004C4C0E0C4B201C0F01206A8D0F0D5F06A
:1009B900EB0206F812063207955308FC5807664CF5
:1009C90007624209004F090844090849077B43099E
:1009D9000E55083F46089D450809470AD450076A3D
:1009E9002D076E2E07912B077223078F200ABD2A28
:1009F900072A4800000789E578B4FF0375780612CD
:100A09000684FC120684FD120684FE120684FF7811
:100A19006E0201D4790AA2D5200314300509B91050
:100A2900020404B9080104A2D520060250010420D9
:100A390002689202B577005034C0E07F2030031974
:100A49007F30A20272067205500F120A76C202C2E4
:100A590006C205C2087F30800F300503E9C0E012E5
:100A690006BF300503D0E0F9D0E0B577CC300517E3
:100A79007F30B9100C1206BF7F583004077F788089
:100A890003B908031206BF3002057F2D0206BF7F96
:100A9900202008F87F2B2006F322920280CF7F00C6
:100AA900B407005005246EF8E6FF22286E756C6CB9
:100AB9002900D2011206843001F8C201787730D5B5
:100AC9000108F602072A2D504349581206842403C7
:100AD900B405004001E4900ACF931206B0743A12AB
:0A0AE90006B0D2037577040208FC82
:10015B00E9D2E7C933E833F892D5EDD2E7CD33ECEA
:07016B0033FC5002B2D52263
:10017200EC30E7100FBF000C0EBE00080DBD0004EE
:100182000BEB6014A2D5EB13FCED92E7FD2274FF9A
:10019200FCFDFEFF22E480F8A2D574FF13FC7D80F3
:0301A200E480EF07
:1001A500F920E72824F950037907E4F42402FB1821
:1001B500DBFDE624FB5014E9600DE4F618E604F6D1
:0F01C500B40A08E4F6D9F57401F60A22C2D5226D
:1001D400ED33EC3392D5FA602AB4FF33EDC2E77BFA
:1001E400FF60067A0179F9E4227A02790220D504C3
:1001F4007A0179FD224E614E002B494E46002D496D
:100204004E4600E47A08F608DAFC7B00740722E81C
:10021400C0E0ECC0E0EDC0E0EEC0E0EFC0E0EA75A5
:10022400F010A4CAABF075F04DA42BFBE435F0FC40
:10023400EA2410FAEB34C5FBEC34D9FCEDC2E7FF39
:1002440075F056A4F42411C5F0F434C58FF0A42A33
:10025400E5F03BE43CF620E714120505D0E0FFD0BE
:10026400E0FED0E0FDD0E0FC1200498014F404125A
:100274000505D0E0FFD0E0FED0E0FDD0E0FC1203A5
:10028400CFD0E0F8E6FAEDD2E7CD33EC332482FBAD
:10029400E4C3CF33CFCE33CECD33CD33DBF37B07C3
:1002A40075F00A846004F6081B0AE5F0F6088FF07E
:1002B400740AA4FFACF08EF0740AA42CFEACF050C7
:1002C400010C8DF0740AA42CFDE435F0F608DBDE95
:0302D4007407228A
:1002D700020190E86480F8E933E83360110460F0C4
:1002E700ED33EC337009E8FCE9FDEAFEEBFF22048D
:1002F70060DED3EB9FEA9EE99DE8C2E78CF0C2F788
:1003070095F0400CE8CCF8E9CDF9EACEFAEBCFFB53
:1003170012015B85D0F05804700320D5B3E8047050
:10032700075002B2D502019A92D5EC0460F7E4CCEB
:10033700C0E0C398F8603B94186008400DD0E0FB1C
:10034700020172E4FBFAC9FC8028E830E406E4C93C
:10035700FBE4CAFCE830E305E4C9CACBFCE8540770
:100367006010F8C3E913F9EA13FAEB13FBEC13FC7B
:10037700D8F130F52FC3E49CFCEF9BFFEE9AFEED1E
:1003870099FDD0E0FBEF4E4D4C701222DB030201CA
:1003970097EC2CFCEF33FFEE33FEED33FDED30E74A
:1003A700EB020172EF2BFFEE3AFEED39FDD0E0FBD9
:1003B70050130BBB000302019AED13FDEE13FEEF82
:0803C70013FFEC13FC020172AC
:1003CF00EC4D6011E8497017ED33EC3304600DE428
:1003DF00FCFFFEFD22E933E8330470F802019012AE
:1003EF00015B58046009E4CC2481500628500902AF
:1003FF00019A284003020197C0E0EB4A7044B9808C
:10040F0006D0E0FB020186EF4E701CBD8008EBFFAB
:10041F00EAFEE9FD80EBE98DF0A4FEE5F00204B8F9
:10042F00E9CDF9EAFEEBFFEF89F0A4FCE5F0CE8908
:10043F00F0A42EFFE435F0CD89F0A42DFEE435F0C5
:10044F008067EF4E7005BD80D780C3EF8BF0A4ACF3
:10045F00F0EE8BF0A42CFCE435F0F8EF8AF0A42C2E
:10046F00E5F038FCE433CB8DF0A42CFCE5F03BF841
:10047F00EE8AF0A42CFCE5F038F8E433CF89F0A431
:10048F002CFCE5F038CF3400CE89F0A42FFFE5F037
:10049F003EFEE433C98DF0A42EFEE5F039CD8AF08F
:1004AF00A42FFFE5F03EFEE43DFD33D0E0FB500707
:1004BF000BBB000F02019AEC2CFCEF33FFEE33FE67
:0604CF00ED33FD02017295
:1004D5003F8000004120000042C80000447A00002F
:1004E500461C400047C35000497424004B189680B1
:1004F5004CBEBC205A0E1BCA6753C21C749DC5AEA8
:10050500FB60065407601C2323120533EB54386047
:100515000912051F12052E1203CFECF8EDF9EEFABC
:10052500EFCB22EB12052E80F1543803241C9004E6
:10053500D5FE93FC0EEE93FD0EEE930ECE93FF22A9
:100E3E00020CCCE493A3F8E493A34003F68001F2F2
:100E4E0008DFF48029E493A3F85407240CC8C333B5
:100E5E00C4540F4420C8834004F456800146F6DF84
:100E6E00E4800B01020408102040809010A9E47E5B
:100E7E00019360BCA3FF543F30E509541FFEE49379
:100E8E00A360010ECF54C025E060A840B8E493A340
:100E9E00FAE493A3F8E493A3C8C582C8CAC583CA6B
:100EAE00F0A3C8C582C8CAC583CADFE9DEE780BE23
:0110E6000009
:10054500BB010689828A83E0225002E722BBFE02B4
:09055500E32289828A83E49322E7
:10055E00BB010CE58229F582E5833AF583E0225052
:10056E0006E92582F8E622BBFE06E92582F8E2229C
:0D057E00E58229F582E5833AF583E49322B6
:10058B00BB010689828A83F0225002F722BBFE014F
:02059B00F32249
:10059D00F8BB010DE58229F582E5833AF583E8F094
:1005AD00225006E92582C8F622BBFE05E92582C840
:0205BD00F22228
:1005BF00BC000BBE0029EF8DF084FFADF022E4CC20
:1005CF00F875F008EF2FFFEE33FEEC33FCEE9DECE9
:1005DF00984005FCEE9DFE0FD5F0E9E4CEFD22ED2F
:1005EF00F8F5F0EE8420D21CFEADF075F008EF2F79
:1005FF00FFED33FD4007985006D5F0F222C398FD6A
:05060F000FD5F0EA2206
:0E061400C3E49FFFE49EFEE49DFDE49CFC22F7
:10062200FAE6FB0808E6F925F0F618E6CA3AF622D9
:10063200D083D082F8E4937012740193700DA3A357
:1006420093F8740193F5828883E47374029368606B
:06065200EFA3A3A380DF6B
:10065800EF4E6012EF60010EEDBB010B89828A83B9
:10066800F0A3DFFCDEFA2289F05007F709DFFCA9C6
:0C067800F022BBFEFCF309DFFCA9F0221D
:00000001FF
